S00B000050574D2E7372656325
S113000010C022C021C020C01FC01EC01DC01CC003
S11300101BC01AC019C018C017C016C015C014C020
S113002013C011241FBECFE5D2E0DEBFCDBF11E067
S1130030A0E6B0E0ECE1F1E002C005900D92A0363C
S1130040B107D9F702D068C0DBCFBA9A8AB3806A05
S11300508ABB83EA80BF83E28FBD81E083BF8EBD0C
S113006016BE1CBE19BC18BC20E630E0E0E6F1E088
S1130070A0E6B0E08D9186BF81EE94E00197F1F7A0
S113008000C00000EA17FB07A9F7A0E6B1E08E91D3
S113009086BF81EE94E00197F1F700C000002A17B3
S11300A03B07A9F7C298A0E6B0E08D918CBF81EE22
S11300B094E00197F1F700C00000EA17FB07A9F7E5
S11300C0A0E6B1E08E918CBF81EE94E00197F1F748
S11300D000C000002A173B07A9F7DF98A0E6B0E0AC
S11300E08D9190E099BD88BD81EE94E00197F1F780
S11300F000C00000EA17FB0799F7829190E099BDD0
S113010088BD81EE94E00197F1F700C00000E2178A
S10F0110F30799F7DD98AACFF894FFCF0D
S113011C00000000000000000000000000000000CF
S113012C00000000000000000000000001010101BB
S113013C0101010101010101010202020202020298
S113014C0203030303030303040404040405050565
S113015C0506060606070707070808080909090A19
S113016C0A0A0B0B0B0C0C0D0D0D0E0E0F0F1010B1
S113017C1111121213131414151516161718181925
S113018C191A1B1B1C1D1D1E1F2020212223232476
S113019C2526272728292A2B2C2D2E2F3031323295
S11301AC3334363738393A3B3C3D3E3F4042434486
S11301BC454648494A4B4D4E4F5152535556575943
S11301CC5A5C5D5F606263656668696B6D6E7072C4
S11301DC737577787A7C7E7F81838587898A8C8E08
S11301EC90929496989A9C9EA0A2A4A7A9ABADAF0A
S11301FCB1B4B6B8BABDBFC1C4C6C8CBCDD0D2D5C4
S113020CD7DADCDFE1E4E7E9ECEFF1F4F7F9FCFF32
S9030000FC
