:1000000010C017C016C015C014C013C012C011C054
:1000100010C00FC00EC00DC00CC00BC00AC009C07C
:1000200008C011241FBECFE5D2E0DEBFCDBF02D095
:1000300027C0E6CF8AB3806A8ABBBA9ADD9AC29893
:100040002FE986E891E0215080409040E1F700C020
:100050000000DD98DF9A2FE986E891E0215080408A
:100060009040E1F700C00000DF98C29A2FE986E8CF
:1000700091E0215080409040E1F700C00000DECFC9
:04008000F894FFCF22
:00000001FF
